:020000040800F2
:100000000050002021020008270200082B020008EF
:100010009D020008A1020008E9020008000000009B
:100020000000000000000000000000003103000894
:10003000350300080000000039030008AD0900087E
:100040004D0300084D0300084D0300084D03000850
:100050004D0300084D0300084D0300084D03000840
:100060004D0300084D0300084D0300084D03000830
:100070004D0300084D0300084D0300084D03000820
:100080004D0300084D0300084D0300084D03000810
:100090004D0300084D0300084D0300084D03000800
:1000A0004D0300084D0300084D0300084D030008F0
:1000B0004D0300084D0300084D0300084D030008E0
:1000C0004D0300084D0300084D0300084D030008D0
:1000D0004D0300084D0300084D0300084D030008C0
:1000E0004D0300084D0300084D0300080000000008
:1000F0000000000000000000000000000000000000
:1001000000000000000000005FF808F100B583B0B7
:1001100000F0AAF9304B314A1360314A1360314B79
:10012000314A32498B4204D21168196004330432D7
:10013000F7E72A4B1A682E4B9A4200D0FEE7284B6D
:100140001A682C4B9A42F9D1234B2B4A13602B4A45
:1001500013602B4B02E000221A600433294A9342B9
:10016000F9D3254B1B6813B9244B1B6803B1FEE779
:1001700000F086F9694601A800F022F9224C234BD1
:10018000E41AA4100025AC4214DC214C214BE41AE3
:10019000A4100025AC4213DC0099019800F032FC59
:1001A00005461D4C1D4BE41AA410002C0EDC2846FD
:1001B00000F0E2F8154B53F8253098470135E2E797
:1001C000144B53F8253098470135E3E7013C134BB6
:1001D00053F824309847E8E7BABADECA0000002096
:1001E0008400002000000020B4D400088800002013
:1001F0007856341232547698880000202C01002062
:1002000088000020300100207803000878030008EF
:1002100078030008780300087803000878030008D2
:1002200008B5FFF773FF00BEFEE71EF0040F0CBF1A
:10023000EFF30880EFF309807146414A10472DE93A
:10024000F04182B004468846124B5E6B9F6B9D6AFC
:100250001B6B13F0020F03D00E4BDB6A002B0CDB81
:100260000D4800F0B5F8CDF800803B4632462946EF
:10027000204600F009F900BEFEE74BF6AB6100F046
:100280007DF90028ECD0034B4FF00042DA6202B057
:10029000BDE8F08100ED00E0AC13000800BEFEE711
:1002A0001EF0040F0CBFEFF30880EFF309807146D6
:1002B000244A10472DE9F04182B004468846084B95
:1002C0005E6B9F6B9D6A074800F082F8CDF8008056
:1002D0003B4632462946204600F0D6F800BEFEE7EF
:1002E00000ED00E0BC1300081EF0040F0CBFEFF39C
:1002F0000880EFF309807146134A10472DE9F04159
:1003000082B004468846084B5E6B9F6B9D6A074827
:1003100000F05EF8CDF800803B4632462946204684
:1003200000F0B2F800BEFEE700ED00E0C8130008E0
:1003300000BEFEE700BEFEE700BEFEE7704700001D
:100340003F020008B5020008FD02000800BEFEE7FB
:10035000B4D400080000002088000020B4D40008B5
:100360000000000000000000880000203001002094
:08037000000000000000000085
:10037800FEE7000008B503460C4A12685AB10B4A5A
:100388001068033323F003030344094A934206D851
:10039800064A136008BD054A06491160EFE700F0F8
:1003A80043FB0C2303604FF0FF30F3E78C00002081
:1003B800004C00203001002001230360014B0B603A
:1003C800704700BF040000200FB400B583B004AB31
:1003D80053F8042B01938021064800F057FB0028AE
:1003E80003DD0146034800F037F803B05DF804EB7D
:1003F80004B07047940000202DE9F04385B004460E
:100408000F4643560BB10E461EE0042528462146EA
:10041800ABBE0446384605B0BDE8F08314F9011BAD
:1004280004AA1A4402F8101C0133AB42F6D304AAFA
:100438001344002203F8102C4FF00408E946404604
:100448004946ABBE8046761B002EE3D03546102EBB
:1004580028BF10250023E8E708B5FFF7CDFF08BD42
:1004680008B500F0FDF8024A024B9A6008BD00BFCB
:100478000000000800ED00E008B500F019F908BD1B
:10048800F8B504460D4617461E462748FFF79CFF59
:1004980021682648FFF798FF61682548FFF794FF11
:1004A800A1682448FFF790FFE1682348FFF78CFF15
:1004B80021692248FFF788FF61692148FFF784FF17
:1004C800A1692048FFF780FFE1691F48FFF77CFF1B
:1004D8001E48FFF779FF29461D48FFF775FF1D4C99
:1004E800E16A1D48FFF770FF216B1C48FFF76CFF9E
:1004F800E16B1B48FFF768FF15F0800F0AD115F470
:10050800004F0CD11748FFF75FFF06991648FFF711
:100518005BFFF8BD39461548FFF756FFEFE7314650
:100528001348FFF751FFEDE790120008A0120008EA
:10053800B0120008C0120008D0120008E01200082B
:10054800F012000800130008101300082013000818
:100558002C13000800ED00E03C1300084C130008C1
:100568005C1300088C130008941300086C1300082F
:100578007C13000883691A888A4201D000207047DA
:100588000268033A012A03D80233836101207047C5
:100598000020704782B00023019300932C4A13680F
:1005A80043F4803313602A4B1B6803F40033009331
:1005B800019B01330193009B1BB9019BB3F5A06F0D
:1005C800F1D1234B1B6813F4003F06D0012300939D
:1005D800009B012B04D002B0704700230093F7E77B
:1005E8001C4B1A6842F010021A601A6822F00302C3
:1005F8001A601A6842F002021A60A3F580535A681A
:100608005A605A685A605A6842F480625A605A6856
:1006180022F47C125A605A6842F4E8125A601A6846
:1006280042F080721A600A4B1B6813F0007FFAD000
:10063800074B5A6822F003025A605A6842F00202D5
:100648005A60034B5B6803F00C03082BF9D1C2E72F
:10065800001002400020024008B5FFF79BFF08BDCC
:1006680008B5104B1A6842F001021A6059680E4A20
:100678000A405A601A6822F0847222F480321A60A2
:100688001A6822F480221A605A6822F4FE025A601C
:100698004FF41F029A60FFF7DFFF044B4FF0006230
:1006A8009A6008BD001002400000FFF800ED00E06D
:1006B8001F4B5B6803F00C03042B15D0082B17D0D5
:1006C8001BB11C4B1C4A1A6002E01A4B1A4A1A60EA
:1006D800174B5B68C3F30313184AD35CDAB21549A6
:1006E8000B68D3400B607047124B134A1A60EFE750
:1006F8000F4A53685268C3F38343023312F4803FAE
:100708000AD00B4A526812F4003F0BD00C4A02FB85
:1007180003F3084A1360DBE7094A02FB03F3054ABF
:100728001360D5E7044A02FB03F3024A1360CFE7DC
:10073800001002401C00002000127A000C0000206B
:1007480000093D0010B4012827D018B1022847D06D
:1007580010BC704779B9344B0020186008E0324C5F
:100768002368880002FA00F0034323600131C9B20C
:100778000729F4D9ECE70129EAD12B4B002159606C
:1007880008E0294C6368810002FA01F10B436360B9
:100798000130C0B20728F4D9DAE779B9234B002031
:1007A800186008E0214C2368880002FA00F003432F
:1007B80023600131C9B20729F4D9C9E70129C7D192
:1007C80000231A494B6008E0184C6168980002FA47
:1007D80000F0014361600133DBB2072BF4D9B7E7BE
:1007E80079B9134B0020186008E0114C2368880081
:1007F80002FA00F0034323600131C9B20729F4D992
:10080800A6E70129A4D1002309494B6008E0084C58
:100818006168980002FA00F0014361600133DBB2BD
:10082800072BF4D994E700BF00080140000C0140F1
:1008380000100140012819D010B102282BD07047B0
:1008480011B1012909D070471D4BD96801F47F41C6
:10085800D960D9680A43DA607047194BD968C9B2B8
:10086800D960D96841EA0222DA60704751B101299A
:10087800E9D1144BD968C9B2D960D96841EA0222D2
:10088800DA6070470F4BD96801F47F41D960D968A5
:100898000A43DA60704751B10129D4D10A4BD968AB
:1008A800C9B2D960D96841EA0222DA60CBE7064BBF
:1008B800D96801F47F41D960D9680A43DA60704782
:1008C80000080140000C0140001001400E4A80233E
:1008D800136000235360516841F001015160516871
:1008E80021F002015160116841F480311160064A1B
:1008F800126812F4003F05D142F20F72934201D8F8
:100908000133F4E7704700BF001002401F291CD8CC
:1009180001280BD010B1022810D070470B4843694A
:10092800012202FA01F11943416170470748C3697E
:10093800012202FA01F11943C16170470348836932
:10094800012202FA01F11943816170470010024047
:10095800064B1A6822F004021A601A6822F0010293
:100968001A601A6822F002021A60704710E000E06C
:10097800084B1860084B1960084B01221A70084B85
:100988001A6842F002021A601A6842F001021A60FC
:10099800704700BF14E000E0180100201401002097
:1009A80010E000E008B5054B1B689847044B1B781E
:1009B8001BB9044A1360043A136008BD18010020EB
:1009C8001401002018E000E010B50A4C23880A4AF8
:1009D800D25C00210846FFF72DFF238801339BB224
:1009E80023804CF2A702934200D010BD002222803F
:1009F800FBE700BF1C010020D813000808B5FFF76B
:100A080065FF02210846FFF781FF02220021084600
:100A1800FFF798FEFFF79CFF02497D20FFF7A8FF2C
:100A2800FEE700BFD1090008014B1868704700BFF6
:100A38002000002030B5141E05469BB0184605DA84
:100A48008B234FF0FF302B601BB030BD4FF4027387
:100A5800ADF80C300CBF234604F1FF330293059325
:100A68004FF6FF7300910491ADF80E3002461E9BBD
:100A78006946284600F072F8431CBCBF8B232B60E4
:100A8800002CE1D00022009B1A70DDE707B5009327
:100A980013460A46014603480068FFF7CBFF03B038
:100AA8005DF804FB200000202DE9F0478E6882469F
:100AB8009E420C469046994637D88A8912F4906F20
:100AC80031D00223256809696F1A656905EB450568
:100AD80095FBF3F509F101033B449D4238BF1D46E0
:100AE800530530D5294600F035FB064650B90C238E
:100AF8004FF0FF30CAF80030A38943F04003A381C8
:100B0800BDE8F0873A46216900F0B4FAA38923F4D6
:100B1800906343F08003A38126613E4426604E46DD
:100B28006561ED1BA5604E4500D94E4632464146EB
:100B3800206800F0AAFAA36800209B1BA360236822
:100B48001E442660DCE72A4600F05EFB06460028C5
:100B5800E2D12169504600F0B1FAC8E72DE9F04F1B
:100B68009DB003938B8980461D060C4616460FD50B
:100B78000B696BB9402100F0EDFA2060206128B9BB
:100B88000C23C8F800304FF0FF30C7E04023636102
:100B98000023099320238DF8293030234FF0010BCF
:100BA8008DF82A3037463D4615F8013B0BB1252B09
:100BB8003ED1B7EB060A0BD0534632462146404693
:100BC800FFF772FF013000F0A480099B534409939A
:100BD8003B78002B00F09D8000234FF0FF32CDE9D9
:100BE8000523049307938DF853301A932F46052253
:100BF80017F8011B4F4800F02FFA049BD0B9D9060B
:100C080044BF20228DF853201A0744BF2B228DF8A9
:100C180053202A782A2A15D02F4600200A25079A19
:100C2800394611F8013B303B092B4DD9B8B10FE0DB
:100C38002F46B8E73F4A3D46801A0BFA00F01843A2
:100C48000490D3E7039A111D12680391002A01DB6F
:100C5800079204E0524243F00203079204933B7860
:100C68002E2B0CD17B782A2B33D1039B02371A1DEC
:100C78001B680392002BB8BF4FF0FF3305932E4D2E
:100C880003223978284600F0E7F938B14023401BA1
:100C980003FA00F0049B01370343049339780622D2
:100CA80026487E1C8DF8281000F0D6F9002838D088
:100CB800234B13BB039B073323F00703083303932A
:100CC800099B4B4409936DE705FB023201200F464F
:100CD800A6E700230A25194601370593384610F878
:100CE800012B303A092A03D9002BC8D00591C6E751
:100CF80005FB012101230746F0E703AB00932246D9
:100D0800104B04A94046AFF30080B0F1FF3F814685
:100D1800D6D1A3895B063FF536AF09981DB0BDE86B
:100D2800F08F03AB00932246064B04A9404600F01F
:100D380081F8EAE77FD4000885D4000889D4000840
:100D480000000000B10A00082DE9F04791461F464F
:100D58008A680B6906469342B8BF1346C9F8003043
:100D680091F843200C46DDF8208012B10133C9F810
:100D780000302368990642BFD9F800300233C9F819
:100D88000030256815F0060507D104F1190AE36853
:100D9800D9F800209B1AAB4229DC94F8433022682A
:100DA800003318BF012392062ED404F143023946BA
:100DB8003046C047013021D02368E56803F00603B8
:100DC800042B18BF0025D9F800204FF0000908BFF0
:100DD800AD1AA368226908BF25EAE5759342C4BF26
:100DE8009B1AED181A344D451AD1002008E001234A
:100DF800524639463046C047013003D14FF0FF30E4
:100E0800BDE8F0870135C2E73020E11881F84300DA
:100E18005A1C94F845102244023382F84310C4E760
:100E28000123224639463046C0470130E6D009F151
:100E38000109D8E72DE9F04301F1430C0C46097E7E
:100E480085B06E291746064698460C9A00F0B3807E
:100E580022D8632936D00AD8002900F0B980582949
:100E680000F0838004F1420584F8421032E06429DE
:100E780001D06929F6D120681368050603F1040139
:100E88002AD51B681160002B03DA2D225B4284F8F7
:100E980043206F480A2239E0732900F09D8008D862
:100EA8006F2920D07029DDD1236843F02003236007
:100EB80003E0752917D07829D4D17823654884F8B8
:100EC800453055E0136804F14205191D1B6811608F
:100ED80084F8423001238CE01B6810F0400F116049
:100EE80018BF1BB2CFE713682568181D10602806C5
:100EF80001D51B6802E06806FBD51B886F2914BF63
:100F08000A2208225248002184F843106568002DFF
:100F1800A560C0F29580216821F004012160002BB2
:100F28003DD1002D40F08E806546082A0BD12368FC
:100F3800DB0708D5236962689A42DEBF302305F8CB
:100F4800013C05F1FF35ACEB05032361CDF80080CA
:100F58003B4603AA21463046FFF7F6FE01304DD145
:100F68004FF0FF3005B0BDE8F083394884F84510EC
:100F7800136821681D1D1B6815600A060BD5CA0772
:100F880044BF41F0200121601BB9226822F02002F1
:100F980022601022B7E74D0648BF9BB2EFE76546CF
:100FA800B3FBF2F102FB1133C35C05F8013D0B46BC
:100FB8000029F5D1B9E713682568181D6169106023
:100FC80028061B6801D5196002E06A06FBD519805E
:100FD800002365462361B9E71368191D11601D6870
:100FE80062680021284600F037F808B1401B6060AD
:100FF80063682361002384F84330A7E723692A46FE
:1010080039463046C0470130AAD023689B0713D41D
:10101800E068039B9842B8BF1846A3E701234A46F5
:1010280039463046C04701309AD00135E368039A03
:101038009B1AAB42F2DCEBE7002504F11909F5E74E
:10104800002BACD1037804F1420584F842306CE7F8
:1010580090D40008A1D4000810B5C9B20244904247
:10106800034601D1002303E01C7801308C42F6D1FD
:10107800184610BD10B5431E0A44914200D110BD58
:1010880011F8014B03F8014FF7E7884210B501EB5F
:10109800020307D8421E99420AD011F8014B02F800
:1010A800014FF8E78342F5D98118D21AD34200D10B
:1010B80010BD13F8014D01F8014DF7E738B50546A5
:1010C800002943D051F8043C0C1F002BB8BFE4188A
:1010D80000F0D0F81E4A1368104633B963601460F4
:1010E8002846BDE8384000F0C6B8A3420BD92168AD
:1010F8006218934201BF1A685B68521822606360E5
:101108000460EDE713465A680AB1A242FAD9196891
:101118005818A0420BD1206801445818824219601F
:10112800DED110685268014419605A60D8E702D9C4
:101138000C232B60D4E7206821188A4201BF11686C
:1011480052680918216062605C60C9E738BD00BF59
:101158002001002070B5CD1C25F0030508350C2DA5
:1011680038BF0C25002D064601DBA94203D90C2304
:101178003360002070BD00F07DF8214A14682146D4
:1011880091B9204C23681BB9304600F063F8206001
:101198002946304600F05EF8431C24D10C23304623
:1011A800336000F068F8E4E70B685B1B18D40B2B7E
:1011B8000FD90B60CC18CD50304600F05CF804F124
:1011C8000B00231D20F00700C31AD3D05A42E25067
:1011D800D0E74B688C4216BF636013600C46EBE7A0
:1011E8000C464968CCE7C41C24F00304A04205D08F
:1011F800211A304600F02EF80130CFD02560DBE709
:101208002001002024010020F8B5074614460E46A8
:1012180021B9BDE8F8401146FFF79CBF22B9FFF796
:101228004DFF25462846F8BD00F026F8A0420FD20B
:1012380021463846FFF78EFF05460028F2D0314692
:101248002246FFF717FF31463846FFF737FFE9E731
:101258003546E7E738B50023054C054608462360C0
:10126800FFF788F8431C02D1236803B12B6038BD0F
:10127800280100207047704751F8043C181F002BC4
:10128800BCBF0B58C0187047537461636B206672FB
:10129800616D653A0A000000205230203D2020256B
:1012A8003038580A00000000205231203D20202507
:1012B8003038580A00000000205232203D202025F6
:1012C8003038580A00000000205233203D202025E5
:1012D8003038580A0000000020523132203D2025C5
:1012E8003038580A00000000204C52203D202025AC
:1012F8003038580A00000000205043203D202025A7
:101308003038580A0000000020505352203D202554
:101318003038580A000000004653522F4641523ACE
:101328000A0000002043465352203D202025303833
:10133800580A00002048465352203D2020253038C6
:10134800580A00002044465352203D2020253038BA
:10135800580A00002041465352203D2020253038AD
:10136800580A0000204D4D464152203D2025303876
:10137800580A00002042464152203D20202530389E
:10138800580A00004D6973630A000000204C522F70
:101398004558435F52455455524E3D2025303858E4
:1013A8000A0000005B486172644661756C745D0AEE
:1013B800000000005B4275734661756C745D0A003D
:1013C8005B55736167654661756C745D0A00000062
:1013D800848184777B857C7D868B7A8382767B7C0F
:1013E800807A7A787578747578808E878883827D1C
:1013F8007C82818081827A82807C7E857D7C7C75FE
:101408007C7E827A817C81817C8B828986868881B8
:10141800837B84858986818583807A7A7378726EE6
:1014280075747978777272706D7170756E6E767387
:1014380073767273817C80807D7E777C78767D86FA
:101448008583887F787D7F7C7E817C7E7E847C7DA1
:10145800888489888A818389848587898A8E8F9000
:101468008A8E8A8289868784898A84888685838801
:1014780089848B8B86858580848885898684807F0E
:101488007D7B7A7779787874737677767A767175E2
:10149800737A797D838B8C848886828785868A8512
:1014A800827C80807F8081808381787C7B79747A5C
:1014B8007A777E7E7F7D7E7C777E807C7C78807E5E
:1014C8007C7C7B7C7A7D79787C77727574727A7C87
:1014D8007C7E7D76707575737A7C7C7A7A7F797C70
:1014E8008082857E807C7B80827F7E8788898B8ACC
:1014F8008C8B828287847F83898A8A918C8A8F8D5C
:101508008780898E8A88888A8883888B8687837E65
:101518007C7D766F7273797773767D79797979784E
:10152800797C797F868A8B8E888181838182817D8F
:101538007D7C7974777C797A7C77756F757871782A
:101548007C7F878C8E82878F88888A868281828337
:1015580080847E7E84827F7A7B7A7F7A74727880B8
:10156800838687877C7E7F7C7B7D7D797F7E78778D
:10157800787A7A7876747878787E7E7C7E838585AA
:101588008382818A8C888682858582848A878786F9
:1015980087837D7F7C84818280828281847E828031
:1015A800817C82827D808588818682828789858305
:1015B80085807C7F81848883827D817C7A7B7F7E25
:1015C8007779777973767075797774757E7A757DA2
:1015D80081858885858587817E82848382818480D0
:1015E8008181808383827E818281818986848A89C0
:1015F8008B878C86868581817D7F7C7D7E7D7C78CE
:10160800787A7B787678797B797A7F848685868103
:10161800807F7F8184857F7E7E7D7C7B787D7F7BDC
:101628007A7979757C7B797F807F7B81807D7E81EB
:101638008484898789888C8B888D88888488878129
:101648008684818387858488837F817F7B7B7B7D7C
:101658007B79807B7C7A7878797E787A7A78777AE1
:101668007E7E80817F7B7F7E797E7E7E7E7F7D7C95
:10167800807D80818581807E7D8285868388848443
:1016880082807F7D7E7C7E7D7E7D7D7E8081818364
:1016980084858282838387888685878688898384F0
:1016A8007F7C777A787376747875787472797978BC
:1016B80076767574797A7B7E84868286868382873D
:1016C800818285807F80847F7E7E807C7B7A77772D
:1016D8007C7C7A80818380858986858786878A88CD
:1016E80085898D8D8D8C898688848580847F7C848E
:1016F8007E82807F7E7E7D7676747878767777773F
:10170800787C7C7F7D80817E7B797C7D80818581F2
:101718008486858280837E8484817F7E828183849F
:101728008080817E7A7F81808082828086828683A3
:1017380085837B8381807D7F8182817C7B7D7F7CAB
:101748007F80807E7D837F8587818483827A7C7C8D
:10175800787A797876787877777A787A7B797C7AF4
:101768008081828687868489858587888686878220
:10177800817F828081867E81817D7A7A7E7C7D7D73
:101788007F80808282838583808688898984878612
:10179800847F7E7F7D7E7B7B78797877787E7D7885
:1017A8007E7C7D7A7879797F7D7D7C7E807C7F8266
:1017B8007F7F827D7D7E7D7E7E838080848584831D
:1017C80085818182817D7E7F7F8280827C7A817E15
:1017D800828286848585808383827C817F7B7B7DF2
:1017E8007D7B817A7C80817E7C807E7D7D7B797A21
:1017F8007E7E7F8283817F807E7D797B7A7F807900
:101808007A7A7C7A7E80808281807E8181818385DC
:1018180082828785898A8888898B8987868482815C
:10182800807C787879767879777A7C7D7B7D7E7D07
:1018380080807D7A7B7B7A808381848685848181A0
:101848008180807B78787A78777A79797C7E7E80D7
:101858007E7E8081837D7D8183838488858786845D
:10186800868586858385827F817E7E817D7C7D7F5E
:101878008080827F83848383818080807F7D7B7A60
:1018880079797878767A7B7B7B7A7877797C7D7CB6
:101898007C7D7D7D7F7C8082807E7F7D7E8384864B
:1018A8008A89888785847C787978757876767C814A
:1018B8008385898A8A8989848385818085848287CA
:1018C800898A8B8A868382827C777C7E7A7E827EF6
:1018D8007F83858182837C7A797573767775767D47
:1018E8007B7D8387888987858383817A7A7A7A78EA
:1018F8007A7C7A7F8485848A88858686817E7F7DC6
:101908007D7F827F83878A8B898A85847E797774B5
:10191800757575797D7D83888A89898782807E76C9
:1019280073747577797F83888C8D898A8A837F7BA6
:1019380077736F6F717277767A80807F7C7E7D7D1A
:10194800827F7F838589898C8A89898683817F8044
:101958007E797D7F7C7F84868783838484857F7F6F
:10196800837E7C7D7C7B797A7C7B7D80818683838A
:1019780085838280807D7875787A7A7A7E8284847D
:101988008282817E7B7877777577797E8083878975
:101998008987847E7B78747476767B7F8487898D4B
:1019A8008B8B8682837F7C7B7C7D7C80828786860E
:1019B80088878681807F7F7F7C7B7C7C7A7B7C7A32
:1019C80079777676757477787A7D80838282818458
:1019D8008686878887858280817E7B797978767507
:1019E8007A7D7C7D8186828184847F7E7F817E7EF4
:1019F800818385848688868284817E7E7C7A7A74D7
:101A08007B7F7C80847B7D8783848C8F9497929B5B
:101A18009D9899969192888D908B938E9FAFA3A352
:101A2800A5A6A5A1A6A0A09E9B97969A9C9A9D9EC6
:101A38009C9B9B998E8D868987827A787B7D7E791F
:101A4800817F7C797C848E8E9296897D81796F6F77
:101A5800675B5659555A625F5E5D5E5B595B5550D0
:101A68005049494B535A565A5F65676B7374767D74
:101A78007B77777F8587877C7A767F858987818959
:101A8800837D838C897A78696066605C5155554B93
:101A98004E565D5C5C5F5B55555555505456525DCE
:101AA8006E828B96A0A0A2A7A6ADAFA3A3A29FAD5E
:101AB800BDB5B2B5AD9C9CA6A69F978D807D868648
:101AC8007F77736A666E6D746D6B6E6364767C7314
:101AD80078746B6E7077827A7076746E82888A8872
:101AE800888882879EADA5A19C9698A8ACA9A1A339
:101AF800A59AA8A8AFAF998F8585868B7F6E6E67EC
:101B08005A6270726D6567595A645D53514B454509
:101B18004959585A575B595C6865615A5B52515C20
:101B2800747B7B777D858C9894989B998C8F9AAFE2
:101B3800B5B3B2B5B6BDC1B9BBA6B3A38B9CA7AEAE
:101B48009794979BA4A19A8E8F8F7C7D8B8B8D8A7F
:101B58007F727D837C74665950534F535C61605427
:101B68005A60616B6A5D52565F5453636969727E4D
:101B78007672878E877E7A7D7F7E7E898D989A9A07
:101B88009596A7AAA697989694969D9FA0A4A29486
:101B980099A9A3A190908F88868A91928E8C818C26
:101BA800998E91898580767F84818072767073752D
:101BB8007175665D545563716B635C68737175709C
:101BC800766B5754556069666768787A7784878634
:101BD80076646A6B6D746F7A818089869098978A2B
:101BE8007E827D7C8488918D929C93999B95918F20
:101BF8008A8383929F9F9FA2B1AFA8A0A2ACA39B08
:101C08008E8F9A9EA1A6A9ABA29591969893897555
:101C1800787E8187898E8D7C7979787D74665A5E25
:101C2800686B636478756B6B61616A65594C4B537B
:101C380058524F5660686253515F6D624D516471DE
:101C4800655B687A857A7271767B7265707F7D785C
:101C580076848C9097939087878F849299918F90B0
:101C68009EA1A5ABA39C9A9899989DA09AA29A9A8E
:101C78009BA2AFA09188959893919298A69C8C94DA
:101C8800A5B3A28E8395938A878D98978C77809831
:101C9800A48D7A7A7C7D7878848B887A6B6E7F8A3B
:101CA8007D6C625F5E576171706D5A4B5B696D65E3
:101CB8005957504D4B5A6F75644C48596D6E5E5468
:101CC80055525054687A7B65595E7780776E6B768B
:101CD8006C69768790857777818F877F8180827717
:101CE80084939894898388938F85818B8D89849434
:101CF800A5A5978A93A5AEA495929A999CA6AEA5F8
:101D0800958A98A7A69F928D8F918D9EAAA99D8B43
:101D18008D9DACAA978586929592949491897F849B
:101D28008A94897D797A7E7A7E807F756F6B737CE1
:101D38007568676E757066686C766D5C53606D6A01
:101D48005A4D586A6D625C6367635A566268605898
:101D5800616B7175787B7D78726F74766A63647273
:101D68007B7D79737E8486837975706E70797B7AD2
:101D78007D84898A84848A88817273828D847F862F
:101D8800949C9187858E938B818486898489949A83
:101D9800958B8D8E9890868B9792888899AAA4980F
:101DA8008E979E9D8A858E918E868A9CA497969200
:101DB800958C83848C8F7D717287918D84878687BB
:101DC8007A72787E78686469797B75727C7F7C70BA
:101DD8006A6F6964646E72706B74818F87776E75D1
:101DE800817D74686B716F737A7D81797271737A92
:101DF80079746767676B77797C7D776B6F76807AA4
:101E08007068696B768280837F7871757B83786E62
:101E1800686F767C7F8184807C727A8488796C682C
:101E28007987918D8A8E8E84828E8B867670748760
:101E380095999693969793969B93887877829393A0
:101E4800918F8D8E8E8F8F8D887C7277868C898E00
:101E58008B8887858C8A847B7573798285888E8B3D
:101E680085828495989384818491959497918B88A1
:101E7800898993928C7C7A7D888D8E8479797E800D
:101E880080827C756E757B847B7270757B7A7673C5
:101E98006D7070706E737F726B6878827E7061602F
:101EA800646F6D65676A6867727E847D6F6A6A743D
:101EB80074707173706D717883857C6E6B6E7671DA
:101EC800737A7C767576889F8C83756A73726C6E6C
:101ED800706B66666F7E827F7667748074717A7ABB
:101EE800777A7B86928D7B71798C8983959290A481
:101EF800A3A0AAB09E969F968D8A8885959AA4A538
:101F0800A2A299A09B9389837E7F7E818A8E968FD9
:101F18008389959385828583838C93959A94868506
:101F2800989390878183797B7E8889876F626F78A1
:101F38007E7F756B6E737F8D96927D6770787E8CD1
:101F48007F71686B78899187775D5B656B79766857
:101F580061676C798984796D62646772797368677F
:101F6800676C7D82796A5A56575B656C6B646462EC
:101F78007283837D756D6E767E888C8F8C898D9B40
:101F88009B95958D8084858A9193928B8F8D8F896F
:101F98008D8F877E7679848E8D8C898783797D8EE7
:101FA8008F87786F758992918D89847C808E9C97B4
:101FB8008E777080929A968D83797985959C907F9B
:101FC8006A7081918F85756B6E7988949285746E2D
:101FD800788B9990806D707A8F9392897A716F7CE3
:101FE8008A8B7B69646C7C8C88806F6D6D707C805B
:101FF800776C61637084867970677174767A7573AB
:10200800717483909B998F888F96968D8684878A22
:102018008D9493968D8789888A7E736F737A82866A
:1020280080807E7B818080796F6B6F7C8A908884CA
:1020380080828B8F8B897B6E6C76888F887C757697
:102048007E83827A746965697F8D8C8175737B84E0
:1020580086837A7268667990948B7D797E878B8A7D
:102068008279706C7787908D8174737C85887F7492
:102078006B686F77828682746C6E79827E726B6908
:102088006F737C82877F73707B8D938B82868E9330
:102098009499A2A2948A89959C97898D8F8F8B8712
:1020A8008F938B7D777C82827E808483837B838BF6
:1020B8008E8683838484879096918A83858C918980
:1020C8007F7C757476828685756E6D757D7D777279
:1020D8006D6B78858B8A7F7271737F837C7068687B
:1020E800727F8A89857871737A84857C6F6C738234
:1020F8008F8D89807270747C7D77695F61697A835E
:102108007F7B6A6468747C767067696F78888F8E65
:1021180086787A8291908C87818386969E9E948613
:102128007F7F8B8F888680807B8292959589827E3F
:102138007D8382827C7B7574868A8D8B86847F857D
:102148008A8F8D83827C858C8D8C8786807D818B20
:10215800887C7573747F7E7A797C7E7D7B848A82A5
:1021680079777B7F837C7B7C81837E8286837C7688
:10217800797D7E7972727D82817C7A7E79737175C0
:102188007978756C707D7B7C74797B7571707876E5
:10219800756F6C76807F7D7A81827F7B8188898E5E
:1021A8008B8C989A97908E958F847C84888B8A855F
:1021B800878C8A8683888A82756F777E86888384EF
:1021C800858381838884796F727B888D8B878381EF
:1021D800818889877E6F69707C8486857C7B78801E
:1021E80081807B746A6D788288868580808187810A
:1021F8007F7A736F75808588877F7F8085847D7CF3
:1022080071726E777A7D817C77737A7E7A746F6B60
:102218006B6F7A7A7D7A787475787C78706F6B7367
:102228007A7F808181807E888D928B898A8D959432
:10223800979393918B8C90918F818283888B8784DD
:1022480081827A797C81837A75798189868781848C
:10225800837E84888E887F80878F8F8E877B7D762C
:102268007D7E807B7072788486857E7571767D85AB
:102278007D7F79767983878680726C6978818079A9
:10228800757479838D8C8B7A73707685877E757774
:10229800787D8486837C6D6565717B7668656773F8
:1022A800797C807B6E636E768082797A84878D9361
:1022B80098A39C8B828A96A1978C7F7E9093999401
:1022C8008D7E7F8B879385787F858D8785818186B5
:1022D8007972757287857F787A7D7F9A7B78727735
:1022E80080868882897E918882868A8279847970BC
:1022F8007A877F7B82726B888D82806E797B788209
:10230800767C7E93827B87817B76867C7A828487C3
:10231800807D7E7770747F76816A7E937570697828
:10232800666D635C6D6E6D6266797372857B807DA8
:102338006B6F8C858C7B81858789839691A6848435
:102348008C938B8785818C878D93949893848E92B8
:10235800A794959285828689848A8C7D64787C810D
:10236800797C6D666C71797C837576747E909F93A9
:1023780089868E88819589897F79717689837B7131
:10238800776D7177877B6D6C6573717F7D737275FF
:102398007473848B8588727489838F8F7973797F3E
:1023A8007A778479717B7C808984777A736974758C
:1023B80076776C6561738075796E6E737A807A89C9
:1023C8007F8185889199978C969696999C94898611
:1023D80083878A8C85807B797E8486817B79757AF0
:1023E80089888B817E7876858A89857E7D858E929F
:1023F8008C8985837E838C8A877D7B858D8C89817A
:1024080080837876788584766D6D7D807E7A757325
:1024180075716E737A726D70797E86827987838022
:102428007581817F7D7A7F7F847F78747F7D7C73DF
:1024380075727D7A7A797A837C7A7C827C7E777EE3
:1024480082857E7F8086898282888E84807E878C42
:102458008B8A888D918B84858882777E828187801C
:102468007F8186837A80877F797C807E8085798169
:1024780085818482868380818285858085848A8C13
:1024880084888182868D8A8A86847D858C8D8C85D8
:1024980080757A818884867977777E888D8176754C
:1024A800757A8389838075757883938E7B7A747C3B
:1024B8007D87857C78666B7584877B746F6D788083
:1024C8008A847F6D677381878680776E6E7F83913C
:1024D800887A6D717B8285877F7D747585959985EE
:1024E8007C74767D8D8D857D766A728992847B7405
:1024F800666D7784838275696971888E867E716E50
:1025080078858F9086777476808F9186786D6D76D2
:102518007F8C897C74727A8B908D83787679828BA4
:102528008F8B82747887908A867A726F7A7D878992
:102538008A7C768788928C877F7E7D808087858657
:102548007980888C92807E7D7B7A817D8180817C78
:102558007F8B9187797F808082827F85868582883C
:10256800948C848185868B837980848081878C890B
:102578008180808788897C7D817B7B828C897E7C39
:10258800787D7F7F848080787B828E92867F848727
:10259800898385888178787B858C877A7A827D8023
:1025A8007E8B857971737F8E897E7A81827F828026
:1025B80085796C67748383787773777A7E7D838572
:1025C800786D798487847C7A7A83848382867D7225
:1025D800717F83878079727373777B7E7D6F6E6F6F
:1025E8007F878880807E7C7D8583807D77757D8AE6
:1025F80086837D7A72737B7E797674767685848419
:1026080088827E767F817F7D79797879807D8784DD
:102618007A7772777B7B7D7F828180898A948E8BA3
:10262800847C847F828987827F838A8D8B847D7670
:102638007B7A7B8488837A7D7F8B8E8D857979718F
:102648007A858D897F7A7D89918E8980777172826A
:10265800898E887D79869699958D8278787F8D96F2
:102668009180747A8D9190877872737A829092882B
:10267800787383909A9A897D7B7F848E8E8A817302
:10268800737E878A7D6F6D6D78858684807A6F7496
:10269800848A8777726A717F8286837B726D78837A
:1026A800857F726C707882898B8676736F808E8B4B
:1026B80086787D7C7D88848982786E6C7F80827A3A
:1026C8007574737B7E7F847D71656E7B8089817F65
:1026D800797D7E818C887E706A707B84837F7D7A29
:1026E8007677848F8A7C706B7481858386867A730B
:1026F80078858D85766C717A7C828A8B847B7981EA
:10270800959B85807A7B7C8390918D827B7686965B
:102718008E7E7E74747B848E90867974758D8E938C
:102728008A77727681888F8C77746C778A93937E98
:102738007575879097978F847C7D8897A48A7C701D
:10274800757B82847A7B717774768B90786E6174EE
:10275800808883796F6E666B8FABA88577879B9C23
:102768009F8782908472676F837C7D706E77736CAD
:102778006D7584807C8B9F9E776F7B848C89707548
:10278800887A6C7C707E87888C887B716E6D787B8C
:102798007976787F867C80848D828174707C7C7564
:1027A800766F7A79718570696E727686897F83888B
:1027B8008E8F92A08E817F72717A7B71797D7989F3
:1027C800897885786F818E8F85766E798F9F9C80CA
:1027D800787A758989847F70637078919F7E6F6C31
:1027E800716D8992928E6E6A7394A19B8F787878B6
:1027F80083988478726363777E7E7D726B6476815A
:10280800929991787B979AA4A2917A7C7F7F8A93F8
:1028180082797F788685898A78756B6F85856F64FC
:10282800667584868D88817A71788B9A907C777C9E
:10283800838B8F82837F75797A87868267686B76C8
:102848008E8B8882867D717F8C878F706B78867A75
:10285800757C80817B7F7E8F908676787987908E55
:102868008A8A7C767B817F7E7E7378757F79818189
:10287800777B7678807D857D7875777F858C838971
:1028880083848182888081817B7D807F898E8D7A17
:1028980079837C857D74737E7D777D897E7681865C
:1028A800807D7C73756C7478747B847D7F7E868173
:1028B8008990858D8A8D8B908B85838A8C938B8369
:1028C8008080766D7A7A7571747E7B7B7C747D7D71
:1028D80087807F8A84817B7C7F8C9182828F8D899F
:1028E8007D7E7E78848080867A73727C847E777021
:1028F8007077717B7B757B7F7E7E7C828B837F7913
:102908008083898C8382838E8E8C8A8B8A7F7D825A
:10291800898C8A867D7C8484878B81756C6C737ABC
:102928007D7971707779808C8E7C6E6B737E838AEB
:10293800848078757B8C8D89817876748D87828385
:10294800827A7688938B867B6B7479817E7D827D93
:10295800777D81878C867A7C848795958E84858817
:102968008A93978D7F7A767C8488847C727380863C
:102978007F786E6C696D7176777C7C696F798A8AED
:102988008482827E797D868788877E837D87858518
:10299800888376777B848E8B817F827B83838D8A05
:1029A80089827E7F828A868C817E7C7B808C8A81EC
:1029B8007D7B8383837D8788837A727B7F797C7D27
:1029C8007C84797A7E7E827972717C7A7676757764
:1029D80073777480837C7C767A7D7C7A7882877939
:1029E80082888A8C888883868B8E8E8A85807E8A68
:1029F8008C868B8884818184807E7C777676837FC1
:102A08007A7F76797983888581827E7783858788BE
:102A18007C7976777C827E73757370788188837011
:102A28007A74798780877E7C807E848A91887A7B95
:102A38007C82928C867C7B867F8A8A8B87847A7557
:102A48008686817F79807B7F898D90848179828554
:102A58008B837B827B73747A827E7473707D7C77C0
:102A680074797B757D788089827C7E797D85817D8E
:102A78008181777A7A7F7E887C757F818686807A65
:102A880084837D7D7F828679787B817F7D7F7E844C
:102A98008685828180898087878180848180877FFD
:102AA8007D79827F7D7C7B81757D807A7E8580873C
:102AB800817A7F7A7E7E7D7B7A7F8684817D867C23
:102AC80084837B7E7A867D7E7978797882817F7E21
:102AD800807D7B84828688838C848A8A84848385AB
:102AE800827D797F797C7F7E7F7F7E7C8182847DF9
:102AF800857C8081868C84908385827D7F7F857E9E
:102B0800797C807F7B82827B7C7C7D7E7C817F7AE6
:102B1800837D7C858C8885928C929A9AA0999E9ABE
:102B28009CA49EA09F9C9D9BA9AB9C9F9C9D9B9BAE
:102B38009BA0AEA49D928291968F7D737A82877DA9
:102B48008487867B7D8A7581868489797E78746D91
:102B58006B6961635C5E665D5C5552554C555956B0
:102B68004E525E555B5F5D60636665655D63635C81
:102B78007371737E7D8B828189847A858280858A50
:102B88008F858B8B8D8684888C857F7D85808D8EC7
:102B980081857F7B7A7A6C79756E6862666865670D
:102BA8006F675F585E5C6A6D5F5D5A5B61606F6BF3
:102BB800656C646C7A827B7F837E828B8F9A969415
:102BC800918D8D979E9195979E87989A858D8581F1
:102BD800787880807677726D616E776B7571736BBC
:102BE8006C6F73757272747A7B898F9D99A3A39E9B
:102BF800AFAFABAAB6B3B1B3B2B2B5B0AAA4AA9BF1
:102C08009498888B868279787C76706764605F5F39
:102C180053524C4C4D51494C5D494C59594F585899
:102C2800525657615B6070716A717E7578868385CC
:102C38007A908A8AA0929CA2A9A6ABB1ABB1B4B192
:102C4800A5ACACB1B0A9B2ADA7A9AAAEACA6A29EDC
:102C58009E9C9C8D948B8688817E767E6C6D6D663D
:102C68006067595461595A52554D4E565A565153E8
:102C7800525152575F52555F5054606966676E7380
:102C8800696A7A8588878680848D93A2A8AAA19A82
:102C98009EA7B4A8B0B3A4A5AEAEA5B6B5A6A99C88
:102CA800A3AEA79DA59A8BA09A98A1A3958A909365
:102CB800928D858185787A83848A766E6E676B6D4E
:102CC80075605559534E5B6E64544E4E505662654E
:102CD8005753554E55716D6B645E5C59697C866DB2
:102CE8006D6963618397838B807E7D8699A4A194A7
:102CF8008B8A8998AFB1A89D959496A8B8B2AB99DC
:102D0800959BA5B0B4B49D989D95A4AEAD9F9D8D9F
:102D1800899A9EA9A2967F8C83858E91927A776FE5
:102D28007F838A876D686563686A6D7064505C67C5
:102D3800696E796053605662686964665A556E6F49
:102D4800738068585E68686F77716A636C72787AA6
:102D580085745D636E6C72818171677883808794F6
:102D6800856F79807A8890958B7F8A9A8F929997C8
:102D780089808F82869497908692988F87929B8B72
:102D88008C9087868A8D9A948DA490878C9B979136
:102D9800A3908E8D8797A2939E9D837E90958B9B03
:102DA8008A8081758792918C867F6E7587798A80F3
:102DB800706D606F737B756C68605F6D6F726E6548
:102DC8005E5261686664665B5760645A6D6D545DF7
:102DD800565C666F5C6162556468676879655A6BB2
:102DE8006A717D6B67736777857D7B888B6E828D53
:102DF8008B998B86898B90A19F99A1A28E919FA276
:102E0800A6A4A4989D9FA2A4A0A79F9395959EA2CF
:102E1800989F968F929C9F99A495848E8B8B9E9455
:102E28008E98887E899384918B757A7B797F867C4E
:102E3800847F6F6E817B7D76676860666B7275765E
:102E4800716A616E71706E68675F5F6F74747878AD
:102E58006B6B706979736C6A65616F76757E7B6F71
:102E6800727862747A67676B696878757580727151
:102E78007A6A6A776C666D7973777F7885827D88E0
:102E880078728276767C8B89818885898B8D8E8C09
:102E9800797E83797E91908792908E8A96958F8796
:102EA80081888B9191A19F9E9CA09097A699918FC4
:102EB80094919F93A0AAA6A2A89C97A199928D9459
:102EC8008E9B898E9B969498918987808277817F43
:102ED80087827886878588887E7471766C747B7A19
:102EE8007A76726F7F75737B685B6B5C5968616714
:102EF800605F536A675A6E615156584E5D5C6871DF
:102F0800615E6A6D647572636868606774778381EF
:102F18006E777C7A8286877D7873748281859478CF
:102F2800757C8386818B857E6F7A87857E9A8A6D8C
:102F3800878B90879294857B84918F8A939D7684E2
:102F48009A9792929E8B79888D838D8A93808194AB
:102F58008F969193907E808B8B888295917F9E929D
:102F680097A292988D8892918E908BA29192A0951B
:102F7800A79693948A8E8F888C8090977F8C8C8F5D
:102F8800887E87787A8775757A7983767D7E77806B
:102F98007178706F8A756A7770746C6B7166676820
:102FA800645F62696162675F716D5B6C6B536772C6
:102FB8005A55736A556D756D77816D736C7B7B712E
:102FC8007979727881677C878D7D828C7E918C82FD
:102FD800818C898C817A8F878675858C8090848690
:102FE80093879293798C8E827B8280808C81818872
:102FF8008783927E75948B8486838B8F918F939130
:103008008C868575798986787185807D888C85819F
:10301800838B7D738B94837F878A849A958A928722
:10302800928880849590868490948E9F958E908BBC
:103038008D8082908F8775888D809397858D857810
:10304800847D7B84846B6B7B6D758076747863720A
:1030580077697D766C5D717667787B746C64646F74
:103068005E6E79615B667265707C81716F74778062
:103078007B8A7C7278797E767B817B736B748282A3
:1030880085847F8776868F808083876F78858A841A
:10309800869090828698907D808D7E767D837C82D6
:1030A8008788777F887D7D7380837674807B7E8F29
:1030B800938880927E7F8477827F736C756F848318
:1030C8007C7877786B887E7A86826F787F879A8A11
:1030D8008C848580849A8F8996867F9093A29F9C02
:1030E8008E8488868E8F868180757B8595958F8A5C
:1030F8007C797F8584867C7C7D74859D948F948182
:1031080079787F7F7D7867746D718F8884877C6E0E
:103118006B6A736564675E605F7E7D7C82807F74A6
:10312800727977657A726C7A7D8B888B818B8471E2
:10313800777873707E727D838B928F94979F7E8051
:10314800837B7B747F7F7A808A888A919786757F54
:10315800737A7572857982858287909687747E7C6A
:10316800707B75817E7C837B81899286727076689C
:103178006B7470707677727883908F7970817872BB
:103188007F897C7D87848084959685727F857D7E06
:10319800908979868A898C95A2937C7F8A8B848989
:1031A8008F8076888C8E909F9D8481808B8E87837C
:1031B80085757A85838B8B917F787277878174790F
:1031C8007969747E878B87857C757084886E686C56
:1031D80069606C7A7F7A777B71687585786B6970BE
:1031E8006D687E86827E85897683888B83787F87E3
:1031F8008284978D90939582848782877C7879845E
:103208007C8A8487988F877E817D85848074808876
:103218007E7A7C94887B797675747580766C867FE7
:103228006D71878B75726F74736672716875856C52
:10323800697C887E6F7174806C78807B7C87826BF8
:103248007D838B807D848985808F919996988C8BDE
:103258008F9496848C8C8B8B898A8F948788837DB6
:10326800858A837E827A81827D8489817B7F747955
:103278007F7C807F7B7A817E808883807D75717872
:103288007677786C6A6C7074737074796D6B717919
:103298007B8078787B778E887C808D83767E828E23
:1032A8008A8383847A8D988386939582828795957D
:1032B80086888585849085838A8F837A8188917FA3
:1032C8007D787479787D7E797B7E71757F87877F3D
:1032D8007F737C7C7889817D807B747E80847C721E
:1032E800696A726671767171706D767C80827B73A3
:1032F8007477767D8286837D7C83878D918A8184AD
:10330800867F87859197878586888D91897E7F843A
:103318007E7F7F8696878083868B8B867F7E7C8068
:103328007E7D7F8E8D7C7E7D878A80797E7A7D7D8D
:1033380070758086797475817B7170726F6F7C6B24
:103348006D7B7E7A73768381777A818077807775D3
:10335800827E817D79858A81818D8F8B8C8C898D08
:1033680088868A8C8D8C8A868D888A8881878078E1
:10337800777C82837F7E8386888B8F82888A797424
:103388007683827D7D8381828B8A82808679706C48
:10339800777773767774727E7A7172766B65676DFC
:1033A800716C707374788284797B86827874777391
:1033B80071838E898A8D968F8D918B8C8F8B898660
:1033C80095978B8E97A188838286887A7F6C5D78A3
:1033D8008E947B89856C6D7798888E876A74839FB5
:1033E8009C8C95866E6679606A85957D66746E9705
:1033F80093967373858282746C5A615A6E70748462
:10340800A07C628F7771808B776B69606371908520
:10341800867D738C8B8A9093879C9C8D84A1AE83C8
:10342800947784687B795B685E6C5B737891998C20
:103438007C8A8B90818D7D8089718677A68F8C752B
:10344800767992835F887B86939175878C8B7B7561
:103458005E6D7479765B8078887B8A9295837179C2
:103468006870716C5E726B726D6E72788A7B888020
:103478008881737287878FA0828D969EA894898F82
:103488007A787B777E928C867274898D9E81858707
:10349800867971839097867C768C949088817A7FE0
:1034A80072657B819483786A769094836A776F7665
:1034B800646569797D656164767D7D715E5C6F6840
:1034C8007675787C8378647E8A939082747E84860D
:1034D8007D8AA29993969E9DA79E8E8286808286DB
:1034E8007F897A918984878693908E7F80787F758B
:1034F8007A83837D7778788A827E7A82766D6D7E0C
:10350800838A897675737E75756C685D60585F69A6
:103518007176696A5F727C8A7F81807B716B89A012
:10352800A89786778C8D939A979093837E8591A0A0
:10353800929A838C8D90938A8C7D7C7C8387978FDD
:103548008E887A7A828888867E7E6D6A647A7371BC
:103558007A6F6D6A7C777C7A71748079787B8781E1
:103568007C7565757B7E68736B6A615D6E7080794A
:103578007A737D8B887C89918A827D7D8494908BF7
:103588008D95909493949B968B8087808494989340
:1035980088888B858C898C886F76737F8185807B02
:1035A80085767C747D78786D646C686775888587A6
:1035B8007C7D7A817F7F78716E697976868480795F
:1035C8006E6E717D857C6F6B69767F8D8F978F832B
:1035D8007E848B8889777E70737A899B9A947D7CA8
:1035E80083888B928A81787C7E8C9994928C85785A
:1035F8007E7E846F6D68687373827F867C726D7956
:103608007C7E787271687C77868A8A84868D8D90B4
:1036180083827A817B7F80888A84837C7B838B8387
:103628007779827983788081898B838D8A96867C65
:10363800747F808272738080867A8385938C80778A
:1036480082868683798480877D828C90918379763F
:103658007E877D747D797D7E7E7D8A90867C7D8265
:103668007E83777B7C807F7B8B90938C8381848423
:1036780089807C807E7D7C838185888373787B7A52
:103688007C7A74687776777F8882776D6B6F7272D1
:10369800727870736E777A8B8F86776F777E857C7A
:1036A8008378787B817E85908C817B78778584860A
:1036B8007C7F7F878A878F8F8C7E80838889857AB5
:1036C800818686857D878E90827F7E888B888080A4
:1036D80088858D7F7C7F88897F7D828584877A7BBA
:1036E80080867871777B7E7F7A75827E7E7A808706
:1036F8008D81707075868D8D86877F88888D8B9378
:103708008E777476858C998D847F84858790908A4E
:103718007E726F78848D827F76757E858C857F75C5
:10372800757276798186847470767884857D7373F2
:103738006C6F717B807D7469727A8786857F787BF0
:1037480079767D86897D7773737B82888381857D91
:10375800727B84857F7E7F7E848680899294908523
:103768007F8693908D8A868481818A918F887F76DF
:103778007C7E7B7C8081797979848C93867E807F3E
:103788007F868684827B7A788A88877D7679777C3B
:10379800827E7E837B7C7B8B96978D7A787D8186F3
:1037A8008882827D797988958E8476757979848204
:1037B8007F81776F7889929082706E757F88888014
:1037C8007D796F7982918E7C6D6670777F847C7647
:1037D80073696D7B908C807064697680848882734D
:1037E80068707A868D88756B6B7687909389827BF3
:1037F8007F80909B93847975768B96908B827F7E61
:1038080082888C8C8277727982919B8F86807D7D6D
:103818007D83878681797374848C8786827C7876A9
:10382800717783817A73727981868584817B7573D8
:1038380078838A88857B7A8285898B857D75706E89
:103848007A868686827E7E8184878B8C867B787951
:103858007F878E8F858179767C83827D7C766B717C
:103868007D818A8A837974767B8585817A706E7585
:1038780085918E8680787278828A85847B6F737A48
:1038880084858E887872727A848B847D7A78797F41
:1038980088928F8A81787B82898A85817F827E7AE5
:1038A80081908F837D7980898A817E83827F7B77EF
:1038B8007F888C83777981827F7B7C80817D6F7222
:1038C8007D84847A74767D7D7278827F7972767B46
:1038D80082837C818A88817E85858B897C80807FB4
:1038E8007A79807F83847F7C7D8484818487817DCD
:1038F8007A7B818582807F807A7B878485837E77C7
:10390800767F81828585837C7C7F898B817C797FAA
:103918007E7D797D83867D7E8483847B8079757ABC
:103928007C7877797B7C80837D7F7A7C80818079C5
:1039380081848188898C8E8C857A7B82848282803E
:10394800808185878B948E8379767B80817B767660
:103958007A767D8686827B7269757A7B807D7774BC
:10396800858D8F96948A7E787B8183847B7378801B
:1039780080808589827F737177797D757474778685
:103988008B868C88828182828490837C7E818B8ADC
:103998008D8B8780797B7D8184837D7D8083838304
:1039A800868A8A7B767B7A7B7D78717C7E77767651
:1039B8007C7D7978757C8383857E7E838D8B827E02
:1039C80081817B7B7E7F7D817F7B7D8984797B7A0A
:1039D800807C807B798A818082808288897F7E85CD
:1039E800857D7D7D828587888387888C8980807E98
:1039F800817D7A7E80837A7A7B798286827E7E79DF
:103A08007878787C78797370767C838286828180F6
:103A180081818788878980817D8284878A867E7272
:103A280076787D7E7C75767B787D838887838584B0
:103A38008184858784847C7C8380818488807E7C63
:103A4800787E8286817D7A7C807D7D7E7E7D7D7A92
:103A58007B807D817E787B7A7C797D7B77767677B3
:103A68007A7E777C7C828483868184888987848A2D
:103A7800888B8E8C84828782807F7F7B7B7C777A21
:103A8800797881807D7E82807F8286817D7E80803C
:103A98007D837C7C81827D818482828381827F8018
:103AA800847F847C7783827D7D7C797C7B797B783D
:103AB8007A7474787E797F7F7E7E7D7C7A837D7C44
:103AC8008181797D7C8584858682868486868884C2
:103AD8008682827F7D84807D81827F7F81847F7ED4
:103AE80082827E7F837E84827B7E7E827A7B7D7FDC
:103AF800827D7B797C7D817D7C7D7D8683868386C6
:103B080085808381837F7E7B797A7E7A7C7E7D7FC8
:103B18007F7E7B8082827E7E7E7D817F8581858699
:103B280084828488838482827E857F808085817A6E
:103B380083837F7B847E7C7A807A7D807D7A7B7E9E
:103B4800798381817F807C7C7F7E7C7D7D797A7B97
:103B58007B7C837F7E7D7E807E7F85807C817D806F
:103B680080818082807B828682808280817D81883C
:103B780083828080808086828081827E8080838923
:103B880083807D837F82837D7F827E787F807C8037
:103B98007A777D7C7E757C7B797877818281787B6A
:103BA8008387807D80818380807F818685827E81F6
:103BB8008381847F807E7E7D81817F80807E8284F8
:103BC8007E7F7D837D817C7E857E7F8084808782E9
:103BD800857E7B84838581807C7C7D87847E7E7CDA
:103BE8007A7A7D7D7E827C787E7C7F7C7E807E7A00
:103BF80076777D82807E7A767B7C7E7D7A7B797C07
:103C08007E7D858280807F82858583847E7C7D80A1
:103C18007D83807D7B817E7F84828487877F8D857D
:103C280084878795978B909B989B9A9F9EA0A5A524
:103C3800A2A1A3A4B3AFABA5A1A8A0A2A5A39C963B
:103C480093928F8D8F92938E868386868481807DD2
:103C58007975797C7B7D7674797D7A737A7E7E86B8
:103C68008586787C82767064696B676A63645F6551
:103C780063585B535C534C4B4A4B4A494C4D4C4B35
:103C88004D584F5051545758575C6471756F777E33
:103C9800827D87858687858A8989847E858C847FCD
:103CA8007E7B7872756E6C675E665C6A656A716445
:103CB8006C74786D7A8781848E908F949696969C92
:103CC8009C9B9C9B9B9AA39F969C979692908D9168
:103CD8008E8B948C7E7B7E7E776A6D6A5B5C60528D
:103CE8004B4F51504B484F4F51505158545F606A99
:103CF80064657A8388868D96A0B0B0AFBBB4B6BB36
:103D0800B8BAB4B2B9B5ACA6ADA2A3A7918892933C
:103D1800897F808575737985796E78897A666C7301
:103D280065636A605C5658555C54545C5B5B6466BA
:103D38007066666B64707067727D7574708996972B
:103D48008C949A959BA49BAAB197AEA2918F9F9DA4
:103D580095938C9286818A858F93889C93898E9976
:103D68009F94939A9C8C8B908A867E81827A6E6BC4
:103D7800766D575E787461546060585D525E655C1C
:103D8800575D71636481866C6377827A737B79810E
:103D98007E8691968581A3A89888A1A3908FA2A6D4
:103DA8008B8CA5AC9A898FABAE9E90A0A38F8DA467
:103DB800997A798DA488707D9495807888817686A3
:103DC80094825F658A9D7D6C7987877A746871783B
:103DD800796E5F5D546474644A5968716F525255C4
:103DE80067786D5C55586E7D67576B7B78756E711B
:103DF8006C728D7D6D6D8392878080938A858386B2
:103E08008C91959784879AA7A393A0A5B2A6A09A08
:103E18009AA6A2A2A2999D9CA5928298A6AA8886F3
:103E28008D908787928B81768A988C7B85A59C88D4
:103E38008B8D8D8C8F908676767B81877669717570
:103E48006E706660635D6A645B5D54525761656657
:103E58005F586A6D5F596B71615F676B5E62646B17
:103E68007274746B6E7376766F75778487818370DE
:103E780082869590807E919D82857D878E919C9388
:103E8800758B988D888B99A2B0A1968EA0A39EACB5
:103E9800ADA0A5AAADA8A0B5B5B3B4A89D9B9DA398
:103EA8009598A8A5998987929794847F828E84741F
:103EB800716D746F8D8E6B5A778E7A6364776B66CB
:103EC80069665E5D5D69705C4C5A7C6F53505660E4
:103ED800545C665A4C56715C4A526B7860595E5C09
:103EE8005C626B5E5950647B5F4C58786A63717B87
:103EF800776B6D787B7672899A838187A89D949D6C
:103F080098A298968E949BA8A79C989495A2B4A3DF
:103F18009199A8AB9F9BA4A2A3A6A6AB968B9CAD98
:103F2800AB91A0B0979594999A919C999683798F23
:103F38009C8A808F9A8A6C7B8D8578788690746746
:103F4800838979666F7D79786B697061626F776351
:103F5800585F5C5C645B54686E6559675A54737D3E
:103F68007261706A5F717B6F64696E736C686A7E78
:103F780071637B826D58727F6C6479857465688221
:103F88008D6E6D7E846A638F8D706A80938C727378
:103F98008D957C719198796C8DA5906D829F917E9D
:103FA8007AA1A782799BB18F7B92A49B8381A198E8
:103FB80082819DA38D7A7E9C8D7E7C8B928B84964C
:103FC800987F8C959B968E9F9F95979F9E8E9FA27C
:103FD8008F8B97A08E848A9188828B837C80808047
:103FE8007E7F717F847E7D798268797E736E747F2F
:103FF80076726C7674727274747463606D716F69C2
:104008006F696D6A6A7062616873766758606E700E
:104018006D66645B6C696268636760736A5954684B
:10402800766D7262637D7669747B887A848273792F
:10403800859B90867A959D83858E8F868FA49071B7
:10404800778FA58F7E89A097858B87828499A79F74
:104058007E828A96988F9DA1958D91838F8E8C9B59
:10406800A391828E8B858A979D8C8B8D727E8D967F
:104078008584928A896F768C958F7C7E847B6B7A17
:10408800877A707686815D5F7E88846F717B7D6AB2
:104098006D848876779293826679968D7F7A868802
:1040A8006C6A80857A72828B7B5B69878C7A6E7D7D
:1040B8007D6E63727579767F897768657E857F7096
:1040C8006A756A5A6572756C718B85716F788788A5
:1040D8007973757D74687783747187866F757A775D
:1040E8007A7A7B777C7A676F82716D7676727E805A
:1040F8007A807A716F80806C7B94948187A6959181
:1041080097A6AD998E8BA3A184879DA39982999D2B
:10411800858999A897898D97957C80949A8D84989C
:10412800A18B7C8E95908B838988796C788C7F7134
:104138008CA1887488898193998F818484828A81EB
:1041480072849E7E6E8282687090846A67767E6AC8
:104158005B646E6B6B6B706E57697F736966718099
:10416800756E7D817E798C90877D849C8D7E798E1D
:10417800927B7C837F7B727A787C837A817C6F6D7B
:1041880082796B6E7D7A6D73737B7183887D8B7F8B
:104198007E74767D79797A887B6C78847C7E848C51
:1041A80081868877747E8580857E756C767976734E
:1041B8007D7F7F7B6A707475707B7363687A8070AB
:1041C8006E7D8F8B857F888C858691988983919366
:1041D800949190A69E938D958D8182919284857CF1
:1041E8008489858596988381988A7A837F82868B4D
:1041F8007B6D82958E908D88908989878C7F798A4E
:104208008B7867798C8E817F7C7E7A747D896F6EDE
:1042180085836C596B758677677381746475817053
:104228006274846D506175837977827D7C727A7B44
:104238006D74888D816671898F7D7B928D7B7C8B77
:1042480076697E87807E7571758879738991948F78
:10425800927D70828F8B8876737783837A7D819441
:104268009377696D787C89917C68707A7D807B8290
:104278008D9980717882828B968D756D757A847E22
:104288007C7B8C766A6569747D807D765E707783C9
:1042980078818F8579787D7A859895838082847DE9
:1042A80091959E998E918483828F9E988D8C898119
:1042B8007781979B887E89876E74899B877A8587A3
:1042C8007B6973878E7D7E82856E7082938E7B88F4
:1042D800847B71788892837F89816D6E73808480F6
:1042E800887C746B6D7A7F77767A6A61696E6367AA
:1042F8007E706D766C64767F787F8A7E71888F7F1A
:104308007D948C858C917E82938381899373828F2F
:10431800877D8293797C8483807D8282828C7E7E75
:1043280080817B818C787D7B8B8981858083827776
:1043380076787E7B7F907F7E71868E827E77868080
:104348007B7D7D76787B897F7668747B6E746E80E2
:104358007D726D736B676B7D83776A6B7E74747C1B
:104368008E85798788797387989496887E888A82DB
:104378007F9194888789857F7C918B968F7A7D81C0
:104388007E7E8E8481868A7E79787B7D8E8C787716
:104398007F7F838C807D7B988C787678797C8B7A0C
:1043A80085817F87887B75778D917F78717977880C
:1043B8007D7F746D77777863637A8E7F6A646C72B9
:1043C8007D72767A6D717A89726988989078767F2D
:1043D800838C939793877C86908471859A8D7C745F
:1043E8007E7E8A8F94958075808E867D889E907A51
:1043F800717874808D9287766F76867A8087968BAF
:104408007B7776787A979B897B75767D7D7C8887A4
:10441800867B767B6E6E7D8E84726E6B71716D7429
:10442800777F766C756963758F827B7576777A7B13
:1044380078808581798D90838093979283828C94FC
:104448008785898583869F927D728883858181850A
:104458008C8F7D87817C7E9B987E6F7F8379828716
:104468008076867D6D757E7F92978D73777F79864E
:104478008281767C80727F827886908F726C797464
:10448800757B77716E77786C75686A7182726780F0
:104498006C6E7D7E78788590887D7C7F87928F840E
:1044A800887B79888986878C8A8C8E818590948F81
:1044B800858B7E77828883777A7F81807F7B8383F1
:1044C800817A7A8371777A908179877D877D8182F5
:1044D8008F8D848D90887E889A878885748A79786C
:1044E800848D797F8A6F7A756D706F6D6B666D6E6E
:1044F8006365696B697362696A52657B87798F83C3
:10450800829493998CA89F97A0A78C7E9BA19A8848
:104518009A8D7C8C826D7D8F857C84775C676D6ECF
:10452800788178718387747E96A297888F83708943
:104538009B928A857F697169647C83847F727565C3
:104548008197808D87757180828081918F87816E38
:104558006B625E6F81765F687A665D6D7976897D5C
:1045680063757F7F92A0A08B859896887A969282B1
:104578008983796B6D7E8780756A85818080788D67
:1045880085988C8A957C7B949889797A8977887CB8
:10459800898581877E8170717C92847E6F7E798225
:1045A8008180827586738F776885948D777779781F
:1045B8007B85878172827873736D6F858C7171705A
:1045C80067698282736A7A726774796F8392787B7B
:1045D8007C797B83858D7F8D8C858B858C8A9D8767
:1045E800878D847C8286837A7F8B7F877B787D8AA0
:1045F8008083877D787B8A82767A8B7E82787881C1
:10460800857C83897C7D78918B8080898187897B73
:104618008488867F8C837D78858A786675706978CA
:1046280070716C6C636D6A69706F7F7C676D707C8C
:104638008E888C8E8873808E868488968E757F810E
:104648007F8C9C978B8E7B817E8D938A969C7C73C6
:104658007D797F8990908F797E7C8683888C908401
:1046680070736C827E8E9394867279867F7C8B8E33
:10467800876C6E6B7670808B8979646968747881D1
:1046880081826F70697073758A82866F67656F74CF
:10469800737C8579686D6D79828B93958E8075852D
:1046A8008E85898E9578747D7C867E959A908673A2
:1046B800818180878D917F75767A81798593948AB7
:1046C800797D7F7D838B8C81787377847E829294C9
:1046D8008677747D797E89897D818380898C8889B4
:1046E8009C8D7D75808176838C786A7E817E7B7BCC
:1046F800818D84837E7D7A7D89867B6A85838278B5
:1047080079828D8E818F7D767882847D6F85907E8B
:1047180072757E808D84907F73747C7A7672718CCA
:104728007B726D7983827F82806D67797D7A7577F8
:10473800987D7D7F82807A918B7E71767982787080
:10474800798E866B7E887C768B9181747D7E7A7873
:104758006A70828670758882737A908573757E7D9B
:10476800767679818F7975807D817B91988376863D
:10477800918179808F907A7E817C86858A868573FF
:104788007185807F7B8C9584858A8A8891918C87B6
:1047980075747F84877B8292857E7A868587858BF0
:1047A8008D797C818D8C877D86867F7F7886857ED6
:1047B8008687817579887D79727F847C7E7E80800A
:1047C8007F7A8983797C89887B737F867D83847AE5
:1047D80076786D7C83807B858E81797585878284E8
:1047E80084857C727F837A7B7D817870667B887B09
:1047F8007E7D8A75667980777786847B75717B7D07
:104808007B827C7D736B798682818A8B80797879CB
:10481800847F857F7E837278878F8B818980737C84
:104828007E867C868E7773737576808285837F7D9E
:10483800818A8C898B988480837D838B8E888A81FA
:10484800818685897E8697868688787A8089878A10
:104858008F80827F7D777891907F81776C74858453
:104868008991847F757C716D858684847E74748F4C
:104878008B879885848384786F868B80837B6F6C25
:1048880079806C877A747D7F7C6F84837B8287795B
:104898006B7B8C6A7A847D7F7A836E788073798B60
:1048A800836C738F79758B8C8A768878737D807E1C
:1048B8008284746C7A836D7C83856C777C77767A56
:1048C800857E827C7E6E8E83838588897D888184BF
:1048D8007981898674847C858584918785888E868C
:1048E8008980848B8681877F7E76807C847A7D87A9
:1048F800748673787B8A7A79807E7F7C838D897CC5
:104908008D7B82787F7F87887A7C7C7C7C88878691
:104918007B947A7D7A737A788178796F7C727F83D9
:104928008D838686898B7A85898C81958678788629
:10493800817F7D867C7888727675886F7388726AC5
:10494800768077738D8370827E7D7F897F7E898074
:1049580078808B9483847C7179787D7A75686F6FA1
:104968007570727F81808D887A7869768B9C919139
:1049780089828B99ADA89899946E7C777A7F808D7F
:104988007D78646575867C73727B819083717A719A
:104998006F91A07678817D7A7971888A8D967E7EEE
:1049A8007E736F8277706F7980748187878A879228
:1049B8008975786F7F7D686E6E7F91817986828434
:1049C8008F8A8D8B86928B8B82778A7B7175716CBF
:1049D8006C816F70856F7E8B71637F9286807C7C23
:1049E8007F8B948D7F85877D8881807C757D7372B0
:1049F80081807D7D8A827B927A83816C72797F72D5
:104A0800808477798898997C73736C6B7176798ACE
:104A1800888584868696AEA8838C8F7C838A877ED9
:104A2800868672717E67768C8B7E6D7473727D76E6
:104A380072827A66627175808AA28A778689868090
:104A480096999A8B846E788E7E81908F7A7A757516
:104A58006B6E7D72677979707E827A869C847284A7
:104A680084757882847983828295968B99A0867FD3
:104A78008084817C788473717A7886848286908237
:104A88007D777A70697E7D7A7B7F727887847F856F
:104A98008D827787867B8791907A8284807A8686D2
:104AA8007985867F727E7675808D7A757D75787941
:104AB8008981878A82747163727D79807E807F8321
:104AC800839592959290877E8087928A87787B7962
:104AD800787E8B8F898D817169706E707A80776C22
:104AE800747077828B8F8885827B7C7B86838791A5
:104AF8007D878188897F7B787D797D797A78757BD8
:104B08007B78807C83817F797D887E87808182879E
:104B18008C82898F89868C8B80878B9196848682FC
:104B28007A7874828482797C7E7B7D878C827D779B
:104B3800756D716C797D78707B85777E88907F7EC6
:104B48007E7C6D7C8B878A83838384797984938B3D
:104B5800838A81737C89838286868380776F7D8D43
:104B68008277807A6F78807D7C8685918F86868C27
:104B78009489868C87827E7E827E837E7A7A7A7713
:104B8800787F8383777B72696E77797C776A727EA8
:104B98007A788990897E86877E81878D877B7A80DF
:104BA8008586848A8F887C757C7C77839290867EC4
:104BB800888C7F82858B8479797C787983878A81D0
:104BC8008283847D778085807F787C7F737A7B7D04
:104BD8006F6D807F767A8C88807B7B7E7975777E17
:104BE8008981767E7F797682827D757A7F797B83EB
:104BF8008E8C888080847A747A7D7E78818585839E
:104C08008592938B7C848B827C888D8B7D74736C6E
:104C18006E727F83847B79848781848C8E897B7B89
:104C28007873737B87837B7B7F7870747B7B8078DA
:104C3800757A7A787E8586827B7C79788187888A7E
:104C4800888582837D8591908D888B877F82837DFF
:104C58008281807D777778818988888C8683807F38
:104C6800787B817E7C7A74717C7E7F7E7C7E7C7C86
:104C78007A7A84837D807F7E77797D7A7F7C76716E
:104C88007576767D87837D87897F7C84898B87810C
:104C98007D8285827D7F817B8084847F7E818584FF
:104CA8007C7C8488837D84858185848384858285D2
:104CB8008A847B7E82807C7C7E7977757174797634
:104CC800787E827D7D86847A7A7F7D7D7C7E8084F5
:104CD8007F7E7F7F7E7C7E7E7E7F7E7F81818083DC
:104CE80085848589867F7E827F8086868886888B74
:104CF800858184868A87817B7D7D757373767A7CCE
:104D08007D7B797A7C7E8185828686808482838297
:104D1800817D7E807F7D7F82838383807D7E7E7E92
:104D28007F837A7E82827C82818695858485868D42
:104D38008B8A95908F97959697969897919B949E26
:104D4800AEA8A3A1A9A9A9B0B4B5B0ADAC9697A0D7
:104D58009B9081878A8D919495939695918E959342
:104D6800938C82807974736F696A6A6B676A65630A
:104D78006866625858605954575D5C575B605E5D61
:104D880065696259615A5B5F6463636C66696C6FDD
:104D980068676868686D727370777D777E7A7E7FE2
:104DA80077716B6F747A73787E7572776C686C63E1
:104DB80064635E5A5959575C6163605F62656162FA
:104DC80066686D68646B74757B7E848A8E989B9F19
:104DD800ACB6B3B8BBB4B6BAB1B0B5B3ADAAAEA5AC
:104DE800A3A59C95958981847874736E6A6D655EB8
:104DF8005D585C61615B5C63636061656E766E786B
:104E0800848485929DA0A9ADB2B6B7AFB7B8BAB53C
:104E1800B5B5A9AEA5A3A09D99919190808A9174EA
:104E2800827F686C6A5F5B5B4F48494B45444B54D3
:104E380050545A5A5B5960575758565557595559EF
:104E48005D61636D746F79827D7D84858692958DB1
:104E58009095929B9E9BA4AEADADB2B5B1B3B1B0E7
:104E6800B2A6AEADABACAFAFA8B0AEA5A5A49995B0
:104E7800918E81737374706D6E61606B6267665E2C
:104E8800615E63605F5F55575A57555F5C5C6B6E38
:104E98006E737771776F7B83767878848280889158
:104EA8008A919691939B9897A698939C9D999E9D7D
:104EB800969AA0989CA39E999BA29A999B95929248
:104EC800968E89958C868A80787D787A7773746FC8
:104ED8006A686B68676166605F635D5D5F645F6693
:104EE8006656666C5E616E68646E6A6C6E6F6A7434
:104EF800736F777171766F6E76786E7077727C7C6F
:104F0800888986878B96878C958B92938F9C9392B2
:104F18009A9DA5A0A5A6A7ACACABA8ACA1A59C9949
:104F28009A9596929993999E9E93A2A394989796F0
:104F38008B8B868B847B817B7B79767C7A7E7D7A72
:104F48007B75756F696C65615B5F5F5A6C5F5C65EB
:104F5800625D615F59575950575D4C5A575F585EAB
:104F6800685F6F6E6A747C707579726D74746C7C2E
:104F78007B7E818C91899B938F9998958A8A898465
:104F88008B838689878F919999A1A6A29F9F9E9BC3
:104F9800979B97959897999BA29AA6A6A0A69FA635
:104FA800A098A5998E99918C94958B949A94979D95
:104FB8009D98958C8481786C6E71697278757F7A0A
:104FC8007B7D807E7678716A64695F565D57585933
:104FD80055575A5F6160686C665E5E585451494F18
:104FE800494C4F505C5A5E6768666B6F6D696B69B8
:104FF8006E71696B787D767E8F828595898B9892A4
:10500800898C8B847E8D83849086949A9C98A7A1A2
:1050180099A599968F938F88948F869496909F9947
:105028009CA6A1A3A4A5A19B9D979293908C9297CF
:10503800889A9A929E969C99989594958C8E888A2F
:105048008883868383827E83837D847D7C7B7E7553
:10505800707A6D716F70766C7275686D6763645B7A
:10506800625D5D5C5D5C5A5954605757645D5B6571
:10507800636768636B606467606768676B717173A7
:10508800777471797C7C7980827D8480837D7D7A58
:10509800777C77787A7A768083828683878988870F
:1050A8008989838D8F878E8B8786808D89868F8E61
:1050B8008D9496919A929D9F8F9D9590968E979993
:1050C80096989D928E99909797959D9095968E9883
:1050D800909094938D8A8E878A8D90878389857C1A
:1050E8007D7F807C737E787475747C747475797335
:1050F800737472776D747166676A666E6C68756DC5
:105108007378757D7C7E7D7F79737771797271781C
:105118006D6D726B7274727A757577787374757653
:105128006E72766E6F6B706C71737275747A767B53
:105138007773787B70747670746D767B7A80847EF2
:10514800888986898182817B7B847C7E8182868234
:105158008D8F8F90929996948E928F878B89808568
:10516800847F8785928D909999909694878B85876F
:1051780082847982807C828587848B8988899083E0
:10518800868C86837F827F7E8189898B8E91968F9C
:105198009A958C908B868287827F8184837E86888D
:1051A80084848386857F81767B7D7970746F646B58
:1051B800656E6B6F72777975737972696F6B7168E9
:1051C80068676B706C6E6F72696E6C6C786F7A73EF
:1051D8006976726967646466686C666D77827279ED
:1051E80081767977787275726F6F7B7B7C817D7D34
:1051F80082877A7D82857E7B79706D6D676876732C
:1052080079787C877E7F868582878482837E818386
:105218008B898684968B8A9E9EA2A0AA9FA7A59A10
:10522800A2A298959C9A909698979B9399888A8B16
:1052380086888D91848A929381878B88807D8A8ADB
:105248008A84898F8E8785787D7D747D79847A8735
:10525800857D83767B6D6A6C6D6F6E6F767A7973F8
:105268007675737976807D867E7D81838272797189
:105278006C707773788583848283777169656463DA
:10528800635B575B605A635F6E696A7466767478AD
:105298006E74776F6E6066666B767B7B88878D91A0
:1052A80093988D8B838D868A8A80858B958E8D8B3E
:1052B8008C8588878E8F8587888C86898584828669
:1052C8008D8E8D959690969095888281827E7E802F
:1052D80076827F7D86827C82787C807887818389CC
:1052E8008D8C8B8682898784888A8B8F7B82918B31
:1052F80083767D81827D7D808083838486867A7EA5
:105308007A7F8485877C7E83887E77787A737479C0
:10531800817F75797780786C676869686D6C716E64
:10532800707C828383837B82868F948A918C8E940F
:105338008D8887807C878F949185889191917F7CD7
:1053480079737A7982807C757D8886817A76787F90
:105358007F86837F838182887E7774707D83817E58
:105368007C79807E79786D726E6D7D8280757383AD
:1053780089877F737476827F80827B7D8082818338
:10538800726F72788389807B81848E7E78807A7B45
:1053980081838B85747A797A817A6C6B6C6E78727A
:1053A8006D72777A7D797D7E727B878D95928C8CF4
:1053B8008F9A978E8E8E909096958F8E878D948FDC
:1053C800908F828585888C87828286838D87858366
:1053D8007D87888F8F87898D8B8E8885817F827E58
:1053E8007D7A7F7B78777C7E7C7679777882757515
:1053F800757D7A777B757676767C7B7E837C7E82FC
:1054080089867D7C7E7F7B7C7A767B7D7A7B7B79C7
:105418007B7A787D837D7D7C787D777972707670F4
:105428006C696D76747575787B727671717775763F
:105438006E75777479757D8083868893949697982E
:105448009992918E88877E85858386848A87868BC4
:105458008E8E87858C8F938C888981848084827CCA
:105468007F7F868E8F8D89898985857C7571727815
:10547800797C787B7B7981807D817E838387867B3D
:105488007B7B7F7D7C7D7672797F8782808180823D
:105498008481767471777F7B797E78797C86888140
:1054A8007C7A8282837A7973707477737171737678
:1054B8007A807578757676797C727072787E7D815F
:1054C8008683868994918F898E98988F818282812C
:1054D80083888788898B8E93908E8C838484847E3E
:1054E8007A797B80838381828784888E8C8886877B
:1054F8008988807A726C6A6C6B6D757C8388868704
:105508008585817F83807E7B77797A7B7A787D7ABF
:105518007D7F7A7B7D7C848682827A736F747372D6
:1055280076797E84888C8986838183817973747285
:10553800757A77757674757573747679797B7C7FEF
:105548007E7A7576797C7A7A7C7F8992908E909033
:10555800928E8A8A8B86878A8E928F8C888C8D8B86
:10556800848384848A8B898C8782828284838380E3
:10557800838C8D8B88878685827D79747173777C1F
:105588007F807F7D838988827D808183817D787417
:10559800747678797674767C8B8B898383837C792F
:1055A800756F69696D6F6F737471777F82837C77AC
:1055B8007A7F80807C7A7A7576786D706C6F858654
:1055C8008684857987868382706E69757C807E7F04
:1055D8007D868A8A928E84858C798B7E69717684A1
:1055E8007C8A7E7D8C8EB4A5A69D7A8885A59589B2
:1055F80089617D8B94867E8988917475665F7E80CB
:1056080095838E7670908293909C9593A4948880CD
:105618007D8299A7847F805B6264696D7580666509
:10562800615D59626468706B7265697C7E95978F5D
:105638009D8482908B9080858D738E7B56696E7366
:105648006E7C77696E6D6E728A8A7A967B6F837CC0
:10565800767D80677C7C677987818295948B948539
:105668008486828178887A8797949691918291919D
:10567800889888877C7C7F77867A7F7B70737B7E2F
:1056880082918D8E99919A917F7B6F6671737283E7
:1056980088887180807C86918A85977D7F8E867FB9
:1056A8008A8C82727F7B74786F7583867983848015
:1056B800747B7A7F7F75757C807C7B777A74867F34
:1056C80085847E7F7A7F6E6E6668676473797B787F
:1056D800817D787A707472696E6F7A77808A7C902F
:1056E800857670727776888D8A898E9896A0A19231
:1056F80097868C8C918E8B9994A391938881898BB2
:10570800948788928C9090887C7D8675796C666485
:105718006679797D78869386858A807A797E79819B
:105728007A6F706C776C7B7D7B817A8682877C7FD1
:10573800827D7C8393857D807B807A7C857C7D7A65
:1057480084807D87838C948A7C7D7D747A7D7D7945
:105758007B8785867C777B796D6969606363646A1A
:105768006F6D6C6C7073767C797B75818A847F7DB4
:10577800807A7C7D82878488878C928D9498949196
:105788009390847F82858C948E8E94939392928E3C
:10579800858B8D8E81707472777C83818A8F8991D5
:1057A800948C818685817F796F6C656875777D7C3F
:1057B800848483847C7B78736F7270656A6B6C7089
:1057C8006C777D8589878A8D8C827F8483817970C7
:1057D8006B697374767982868A91888A86857D7CDE
:1057E8007F79736F6D6D757879797C798483868814
:1057F80085837E807A7B736F6F797C7D8384868FC7
:105808008F908E8E8E8788837B7676727977777C79
:105818007E7D828791918F918E948A867975737334
:105828007376838487898D8B8C8A89828283847E30
:10583800767578828285858A8E8D87848582848133
:105848007A736C6A65696C6E777B83848B8E8987C3
:10585800827F7B7C8079716C6F73767A767B8184AA
:10586800868888827C79797A7A787270797C7F8266
:10587800868A8D9295908B8A8484867F77797A7FC1
:105888007E7F8282848C8D8D9594978F8E8D867E77
:105898007876767D8285848581858B92918A8580CC
:1058A80082807C76727177787A7A7F868789878515
:1058B8008683828987837E75747974757A7F8283FB
:1058C80088888884888786888585787173777E83B9
:1058D8007D777B808083847E79767A7E7F7B7678FD
:1058E80080857F7C79787B7D827F77727373727015
:1058F8006B6D6E70757576747279818785807D7C25
:105908007E7D7D777472777F7F7E7977787F8285D9
:105918007F7F8381807E7A7A7E81878C8F8785835B
:1059280083858986818581827A7472757E7F7C7B86
:1059380076777A79838D928A8985867E726B697784
:105948007C7C7C7B7A7E828A8784848082847D7A50
:10595800797D817B7F7E7E80848886878B8987920C
:105968009187827C7A81818580797E86898C8C85F5
:10597800898A95948B837B7F8788827D7A7D8282D2
:10598800808483858686807876747B83827F7E8018
:10599800888A827E7E7E817F7F7F7B7B7B7D828102
:1059A8007F7C7B7B7C777D86898C8A8F8F8D8A85AF
:1059B80081807F838383827F828182847D797B79E2
:1059C8007D7E7F82848487848183828383848383AA
:1059D8007F7A7B7C776F6F757370756E7076787E63
:1059E8007E84847F7F7E80827F7D76757B787472EB
:1059F8007271767A7E8484807B7B7D7C76777A82EE
:105A080084837F7B7F80817F7F817D7E7E797C80A0
:105A1800807C83847F7873787A82857E7D8081829A
:105A28007E79767B81817E797C79797D7D817B79B0
:105A38007A797E7E7C7E83898B8986817F82807C51
:105A48007D7C7C7B7A7E7D7E7F82888D8F8A858631
:105A58008480838283818286878784838A918F8AE0
:105A6800898988877F7D7E80807B7A7A7B7A808629
:105A78008B8D898D8D8D8C857F8187847F7C7E84BD
:105A8800827D8284827F82837E7E7F7B7982827E12
:105A98008284827E8183858986888584877D777ADA
:105AA8007C8177757D75757679828680848C8C8B00
:105AB80087838384827D797A757578787878787623
:105AC800797A7B777175797A78787C797578797B4A
